:100000000C942A000C943F000C943F000C943F0089
:100010000C943F000C943F000C943F000C943F0064
:100020000C943F000C943F000C943F000C943F0054
:100030000C943F000C943F000C943F000C943F0044
:100040000C943F000C943F000C943F000C943F0034
:100050000C943F0011241FBECFE5D8E0DEBFCDBF1A
:1000600010E0A0E6B0E0E0E4F2E302C005900D92FB
:10007000A039B107D9F70E949B050C941E190C9466
:100080000000EF92FF920F931F937B018C0120E001
:1000900030E040E05FE40E94410388238CF0C80117
:1000A000B70120E030E040E05FE40E94B9010E9427
:1000B000A1039B01AC01205030404040504806C095
:1000C000C801B7010E94A1039B01AC01B901CA019B
:1000D0001F910F91FF90EF900895A0E0B0E0E3E74B
:1000E000F0E00C94A218DC012B01FA019C919230F3
:1000F00008F439C1EB018881823008F433C19430AF
:1001000069F4843009F02FC111969C91119789816F
:10011000981709F428C1A3E7B0E025C1843009F499
:1001200021C18230A9F4923009F01DC19A01AD01BC
:1001300088E0EA010990AE01E90109929E0181502F
:10014000C1F7E201898111969C918923818308C1BD
:10015000923009F407C112962D903C901397EB0151
:100160008A819B811496AD90BD90CD90DC901797BD
:10017000EC80FD800E811F819101281B390BB90194
:1001800037FF04C066277727621B730B6032710547
:100190000CF061C0121613066CF537014801062EEB
:1001A00004C096948794779467940A94D2F721E0D8
:1001B00030E040E050E004C0220F331F441F551FC1
:1001C0006A95D2F721503040404050402E213F21C7
:1001D00040235123211531054105510521F021E02E
:1001E00030E040E050E079018A01E628F72808294C
:1001F00019293CC0232BD1F1260E371E35014601AB
:10020000062E04C096948794779467940A94D2F744
:1002100021E030E040E050E004C0220F331F441FD3
:10022000551F6A95D2F721503040404050402A2156
:100230003B214C215D21211531054105510521F05E
:1002400021E030E040E050E059016A01A628B728DB
:10025000C828D9280BC0821593052CF01C01AA24AC
:10026000BB24650103C0EE24FF24870111969C91F5
:10027000D20111968C91981709F445C0992339F051
:10028000A80197012A193B094C095D0906C0A6017E
:1002900095012E193F09400B510B57FD08C01182E3
:1002A0003382228224833583468357831DC081E0B5
:1002B00081833382228288279927DC01821B930B5A
:1002C000A40BB50B84839583A683B7830DC0220F3F
:1002D000331F441F551F24833583468357838281F0
:1002E000938101979383828324813581468157814D
:1002F000DA01C9010197A109B1098F5F9F4FAF4F83
:10030000BF4328F30BC0918333822282EA0CFB1C8B
:100310000C1D1D1DE482F5820683178383E0808314
:10032000248135814681578157FF1AC0C901AA2708
:1003300097FDA095BA2F81709070A070B0705695FF
:10034000479537952795822B932BA42BB52B848328
:100350009583A683B7838281938101969383828359
:10036000DF0101C0D201CD01CDB7DEB7E2E10C94CF
:10037000BE18A0E2B0E0EFEBF1E00C94AE18698398
:100380007A838B839C832D833E834F835887E9E058
:10039000EE2EF12CEC0EFD1ECE010196B7010E944F
:1003A000CA048E010F5E1F4FCE010596B8010E9450
:1003B000CA048A8991E089278A8BC701B801AE01F6
:1003C000475E5F4F0E946D000E94F503A096E6E035
:1003D0000C94CA18A0E2B0E0E0EFF1E00C94AE1883
:1003E00069837A838B839C832D833E834F835887D5
:1003F000F9E0EF2EF12CEC0EFD1ECE010196B701B7
:100400000E94CA048E010F5E1F4FCE010596B801EF
:100410000E94CA04C701B801AE01475E5F4F0E9447
:100420006D000E94F503A096E6E00C94CA18A0E2C5
:10043000B0E0EDE1F2E00C94A21869837A838B833B
:100440009C832D833E834F835887CE010196BE0146
:10045000675F7F4F0E94CA04CE010596BE016F5EA2
:100460007F4F0E94CA049985923088F08989823032
:10047000C8F0943019F4823051F404C0843029F467
:10048000923081F483E790E0C6C0923049F420E0D6
:100490009A858A89981321E02A87CE010996BBC0E4
:1004A000823049F420E09A858A89981321E02A8BCA
:1004B000CE014196B0C02D843E844F8458886D880B
:1004C0007E888F88988CEE24FF248701AA24BB2481
:1004D000650140E050E060E070E0E0E0F0E0C10184
:1004E00081709070892BE9F0E60CF71C081D191D2E
:1004F0009A01AB012A0D3B1D4C1D5D1D80E090E073
:10050000A0E0B0E0E614F7040805190520F481E046
:1005100090E0A0E0B0E0BA01A901480F591F6A1F9E
:100520007B1FAA0CBB1CCC1CDD1C97FE08C081E005
:1005300090E0A0E0B0E0A82AB92ACA2ADB2A3196C6
:10054000E032F10549F0660C771C881C991C569422
:10055000479437942794C3CFFA85EA892B893C893D
:100560008B859C85280F391F2E5F3F4F17C0CA010E
:1005700081709070892B61F016950795F794E79438
:1005800080E090E0A0E0B0E8E82AF92A0A2B1B2BD3
:1005900076956795579547952F5F3F4F77FDE7CF46
:1005A0000CC0440F551F661F771F17FD4160EE0CEE
:1005B000FF1C001F111F21503040403090E05907B0
:1005C00090E0690790E4790760F32B8F3C8FDB01A3
:1005D000CA018F779070A070B07080349105A1052A
:1005E000B10561F447FD0AC0E114F10401051105EC
:1005F00029F0405C5F4F6F4F7F4F40781A8EFE1797
:1006000011F081E08A8F4D8F5E8F6F8F78A383E02A
:10061000898FCE0149960E94F503A096E2E10C94E1
:10062000BE18A8E1B0E0E7E1F3E00C94AE186983EE
:100630007A838B839C832D833E834F83588789E005
:10064000E82EF12CEC0EFD1ECE010196B7010E94A2
:10065000CA048E010F5E1F4FCE010596B8010E949D
:10066000CA048985823040F08989823028F0C70128
:10067000B8010E94420501C08FEF6896E6E00C9435
:10068000CA18A8E1B0E0E7E4F3E00C94AE1869837F
:100690007A838B839C832D833E834F83588789E0A5
:1006A000E82EF12CEC0EFD1ECE010196B7010E9442
:1006B000CA048E010F5E1F4FCE010596B8010E943D
:1006C000CA048985823040F08989823028F0C701C8
:1006D000B8010E94420501C08FEF6896E6E00C94D5
:1006E000CA18A8E1B0E0E7E7F3E00C94AE1869831C
:1006F0007A838B839C832D833E834F83588789E045
:10070000E82EF12CEC0EFD1ECE010196B7010E94E1
:10071000CA048E010F5E1F4FCE010596B8010E94DC
:10072000CA048985823040F08989823028F0C70167
:10073000B8010E94420501C081E06896E6E00C9491
:10074000CA18ACE0B0E0E7EAF3E00C94B2186983B1
:100750007A838B839C83CE010196BE016B5F7F4FB2
:100760000E94CA048D81823061F1823050F1843060
:1007700021F48E81882351F12EC02F81388537FDD9
:1007800020C06E812F3131051CF06623F9F023C0A3
:100790008EE190E0821B930B29853A854B855C8521
:1007A00004C056954795379527958A95D2F76623C5
:1007B000B1F050954095309521953F4F4F4F5F4F89
:1007C0000EC020E030E040E050E009C02FEF3FEFE6
:1007D0004FEF5FE704C020E030E040E050E8B901AF
:1007E000CA012C96E2E00C94CE18DF92EF92FF92B1
:1007F0000F931F93FC01E480F58006811781D1805F
:100800008081823048F480E090E0A0E1B0E0E82A06
:10081000F92A0A2B1B2BA5C0843009F49FC0823013
:1008200021F4EE24FF24870105C0E114F104010541
:10083000110519F4E0E0F0E096C0628173819FEF4A
:10084000623879070CF05BC022E83FEF261B370BBC
:100850002A3131052CF020E030E040E050E02AC0A1
:10086000B801A701022E04C0769567955795479564
:100870000A94D2F781E090E0A0E0B0E004C0880FD5
:10088000991FAA1FBB1F2A95D2F70197A109B10989
:100890008E219F21A023B1230097A105B10521F04E
:1008A00081E090E0A0E0B0E09A01AB01282B392B69
:1008B0004A2B5B2BDA01C9018F779070A070B07062
:1008C00080349105A105B10539F427FF09C0205CEA
:1008D0003F4F4F4F5F4F04C0215C3F4F4F4F5F4F23
:1008E000E0E0F0E02030A0E03A07A0E04A07A0E412
:1008F0005A0710F0E1E0F0E079018A0127C0603882
:10090000710564F5FB01E158FF4FD801C7018F77EE
:100910009070A070B07080349105A105B10539F4D4
:10092000E7FE0DC080E490E0A0E0B0E004C08FE3FB
:1009300090E0A0E0B0E0E80EF91E0A1F1B1F17FFB1
:1009400005C016950795F794E794319687E01695BC
:100950000795F794E7948A95D1F705C0EE24FF2414
:100960008701EFEFF0E06E2F679566276795902F70
:100970009F77D794DD24D7948E2F8695492F462BC9
:10098000582F5D29B701CA011F910F91FF90EF9079
:10099000DF900895FC01DB01408151812281622FAB
:1009A0006F7770E0221F2227221F9381892F880FE3
:1009B000822B282F30E0991F9927991F11969C931D
:1009C000119721153105A9F54115510561057105ED
:1009D00011F482E037C082E89FEF13969C938E93C8
:1009E00012979A01AB0167E0220F331F441F551F76
:1009F0006A95D1F783E08C930DC0220F331F441FFB
:100A0000551F12968D919C911397019713969C9365
:100A10008E931297203080E0380780E0480780E40A
:100A2000580758F314962D933D934D935C93179765
:100A300008952F3F310579F4411551056105710580
:100A400019F484E08C93089564FF03C081E08C93D3
:100A500012C01C9210C02F57304013963C932E9317
:100A6000129783E08C9387E0440F551F661F771F12
:100A70008A95D1F7706414964D935D936D937C9332
:100A8000179708951F93DC01FB019C91923008F4A5
:100A900047C08081823008F443C0943051F41196ED
:100AA0001C91843099F58181682F70E0611B710978
:100AB0003FC0843021F0923031F48230B9F181812D
:100AC000882389F12DC011961C9111978230F1F085
:100AD00081811817D9F412962D913C911397828138
:100AE00093818217930794F028173907BCF0149666
:100AF0008D919D910D90BC91A02D248135814681D1
:100B00005781281739074A075B0718F4112341F06A
:100B10000AC082179307A407B50740F4112319F000
:100B200061E070E005C06FEF7FEF02C060E070E051
:100B3000CB011F910895DF93CF93CDB7DEB7E09738
:100B40000FB6F894DEBF0FBECDBF0E94F50E82E057
:100B50000E946A070E940A1818AA1FA61EA61DA6B0
:100B60001CA61BA680E060E00E946C1720E630E027
:100B700080E060E0A9010E94B91780E06AE00E946D
:100B80006C178BA59CA50E9496172BE630E080E0A1
:100B90006DE0A9010E94B91782E064E00E94280D6F
:100BA000882309F4F5C080E090E0AAE7B3E48FA3BE
:100BB00098A7A9A7BAA76FA178A589A59AA520E0AB
:100BC00030E04AEF54E40E941702DC01CB018BA312
:100BD0009CA3ADA3BEA36BA17CA18DA19EA120E08F
:100BE00030E040E85FE30E94710388232CF481E049
:100BF00090E09AA389A33FC06BA17CA18DA19EA187
:100C000020E03FEF4FE757E40E94110318164CF520
:100C10006FA178A589A59AA520E030E040E251E4D3
:100C20000E941702DC01CB01BC01CD010E944100F2
:100C3000DC01CB019AA389A30FC088EC90E098A3B4
:100C40008F8F8F8D98A10197F1F798A38F8F89A12E
:100C50009AA101979AA389A389A19AA1009769F7FC
:100C600014C06BA17CA18DA19EA10E944100DC015A
:100C7000CB019AA389A389A19AA19E8F8D8F8D8D77
:100C80009E8D0197F1F79E8F8D8F87E60E94231826
:100C90000E943A188EA780E090E0A0E8BFE3898F19
:100CA0009A8FAB8FBC8F698D7A8D8B8D9C8D20E058
:100CB00030E04AEF54E40E941702DC01CB018D8B37
:100CC0009E8BAF8BB88F6D897E898F89988D20E040
:100CD00030E040E85FE30E94710388232CF481E058
:100CE00090E09C8B8B8B3FC06D897E898F89988D1E
:100CF00020E03FEF4FE757E40E94110318164CF530
:100D0000698D7A8D8B8D9C8D20E030E040E251E43E
:100D10000E941702DC01CB01BC01CD010E94410001
:100D2000DC01CB019C8B8B8B0FC088EC90E09A8B05
:100D3000898B89899A890197F1F79A8B898B8B899D
:100D40009C8901979C8B8B8B8B899C89009769F779
:100D500014C06D897E898F89988D0E944100DC01C5
:100D6000CB019C8B8B8B8B899C89988B8F878F85F4
:100D700098890197F1F7988B8F870E943A188DA771
:100D8000A8E3B0E0E8E3F0E0908180E189278C936C
:100D900081E062E00E94280D882309F4FDCE80E006
:100DA00090E0AAE7B3E48B879C87AD87BE876B850D
:100DB0007C858D859E8520E030E04AEF54E40E94DA
:100DC0001702DC01CB018F839887A987BA876F81CF
:100DD000788589859A8520E030E040E85FE30E94CD
:100DE000710388232CF481E090E09E838D833FC0C3
:100DF0006F81788589859A8520E03FEF4FE757E43A
:100E00000E94110318164CF56B857C858D859E8597
:100E100020E030E040E251E40E941702DC01CB0107
:100E2000BC01CD010E944100DC01CB019E838D837A
:100E30000FC088EC90E09C838B838B819C81019711
:100E4000F1F79C838B838D819E8101979E838D8397
:100E50008D819E81009769F714C06F81788589859F
:100E60009A850E944100DC01CB019E838D838D8198
:100E70009E819A83898389819A810197F1F79A8368
:100E8000898387E60E9423188EA5282F30E08DA540
:100E9000882F90E0AC01249FC001259F900D349FC6
:100EA000900D11249CA78BA780E06AE00E946C172C
:100EB0002EE630E080E069E0A9010E94B91780E0E9
:100EC0006AE00E946C178BA59CA50E94961718AA31
:100ED0001FA662CEDF93CF9300D000D0CDB7DEB790
:100EE0008A8381E089838A81813208F09AC58A8168
:100EF000282F30E0C901880F991F820F931F880F98
:100F0000991FFC01E058FF4F81E080838A81282FE0
:100F100030E0C901880F991F820F931F880F991F16
:100F2000FC01E558FF4F8081282F30E03C832B8364
:100F30008B819C818130910509F46AC12B813C81B0
:100F4000223031052CF48B819C81009771F059C5BA
:100F50002B813C812230310509F4ADC28B819C810B
:100F60008330910509F4FAC34CC58A81282F30E0FB
:100F7000C901880F991F820F931F0196880F991F2F
:100F8000FC01E558FF4F8081813009F08FC0AAE352
:100F9000B0E0EAE3F0E040818A81282F30E0C90127
:100FA000880F991F820F931F880F991FFC01E45827
:100FB000FF4F8081282F30E081E090E002C0880F51
:100FC000991F2A95E2F7842B8C938A81282F30E091
:100FD000C901880F991F820F931F880F991FFC0169
:100FE000E258FF4F8081813001F5ABE3B0E0EBE3E5
:100FF000F0E040818A81282F30E0C901880F991FD5
:10100000820F931F880F991FFC01E458FF4F8081C6
:10101000282F30E081E090E0022E02C0880F991F57
:101020000A94E2F7842B8C930AC58A81282F30E03A
:10103000C901880F991F820F931F880F991FFC0108
:10104000E258FF4F8081882309F5ABE3B0E0EBE382
:10105000F0E040818A81282F30E0C901880F991F74
:10106000820F931F880F991FFC01E458FF4F808166
:10107000282F30E081E090E0022E02C0880F991FF7
:101080000A94E2F7809584238C93D9C48A81282F0F
:1010900030E0C901880F991F820F931F880F991F95
:1010A000FC01E058FF4F10821982C9C48A81282FA1
:1010B00030E0C901880F991F820F931F0196880F96
:1010C000991FFC01E558FF4F8081882309F090C0EB
:1010D000AAE3B0E0EAE3F0E040818A81282F30E023
:1010E000C901880F991F820F931F880F991FFC0158
:1010F000E458FF4F8081282F30E081E090E002C06B
:10110000880F991F2A95E2F7809584238C938A8112
:10111000282F30E0C901880F991F820F931F880F75
:10112000991FFC01E158FF4F8081813001F5ABE34D
:10113000B0E0EBE3F0E040818A81282F30E0C90184
:10114000880F991F820F931F880F991FFC01E45885
:10115000FF4F8081282F30E081E090E0022E02C016
:10116000880F991F0A94E2F7842B8C9368C48A81B4
:10117000282F30E0C901880F991F820F931F880F15
:10118000991FFC01E158FF4F8081882309F5ABE3EB
:10119000B0E0EBE3F0E040818A81282F30E0C90124
:1011A000880F991F820F931F880F991FFC01E45825
:1011B000FF4F8081282F30E081E090E0022E02C0B6
:1011C000880F991F0A94E2F7809584238C9337C483
:1011D0008A81282F30E0C901880F991F820F931F41
:1011E000880F991FFC01E058FF4F1082198227C415
:1011F0008A81282F30E0C901880F991F820F931F21
:10120000880F991FFC01E058FF4F1082198217C404
:101210008A81282F30E0C901880F991F820F931F00
:101220000196880F991FFC01E558FF4F808181309E
:1012300009F08FC0A7E3B0E0E7E3F0E040818A81E6
:10124000282F30E0C901880F991F820F931F880F44
:10125000991FFC01E458FF4F8081282F30E081E086
:1012600090E002C0880F991F2A95E2F7842B8C9397
:101270008A81282F30E0C901880F991F820F931FA0
:10128000880F991FFC01E258FF4F8081813001F5E2
:10129000A8E3B0E0E8E3F0E040818A81282F30E065
:1012A000C901880F991F820F931F880F991FFC0196
:1012B000E458FF4F8081282F30E081E090E0022E3B
:1012C00002C0880F991F0A94E2F7842B8C93B7C34E
:1012D0008A81282F30E0C901880F991F820F931F40
:1012E000880F991FFC01E258FF4F8081882309F580
:1012F000A8E3B0E0E8E3F0E040818A81282F30E005
:10130000C901880F991F820F931F880F991FFC0135
:10131000E458FF4F8081282F30E081E090E0022EDA
:1013200002C0880F991F0A94E2F7809584238C935A
:1013300086C38A81282F30E0C901880F991F820F48
:10134000931F880F991FFC01E058FF4F10821982EC
:1013500076C38A81282F30E0C901880F991F820F38
:10136000931F0196880F991FFC01E558FF4F80815C
:10137000882309F090C0A7E3B0E0E7E3F0E0408104
:101380008A81282F30E0C901880F991F820F931F8F
:10139000880F991FFC01E458FF4F8081282F30E00F
:1013A00081E090E002C0880F991F2A95E2F78095AE
:1013B00084238C938A81282F30E0C901880F991FDC
:1013C000820F931F880F991FFC01E158FF4F808106
:1013D000813001F5A8E3B0E0E8E3F0E040818A81E4
:1013E000282F30E0C901880F991F820F931F880FA3
:1013F000991FFC01E458FF4F8081282F30E081E0E5
:1014000090E0022E02C0880F991F0A94E2F7842B05
:101410008C9315C38A81282F30E0C901880F991F4A
:10142000820F931F880F991FFC01E158FF4F8081A5
:10143000882309F5A8E3B0E0E8E3F0E040818A8181
:10144000282F30E0C901880F991F820F931F880F42
:10145000991FFC01E458FF4F8081282F30E081E084
:1014600090E0022E02C0880F991F0A94E2F780953F
:1014700084238C93E4C28A81282F30E0C901880F2D
:10148000991F820F931F880F991FFC01E058FF4F8F
:1014900010821982D4C28A81282F30E0C901880FB6
:1014A000991F820F931F880F991FFC01E058FF4F6F
:1014B00010821982C4C28A81282F30E0C901880FA6
:1014C000991F820F931F0196880F991FFC01E55801
:1014D000FF4F8081813009F08FC0A4E3B0E0E4E3E6
:1014E000F0E040818A81282F30E0C901880F991FE0
:1014F000820F931F880F991FFC01E458FF4F8081D2
:10150000282F30E081E090E002C0880F991F2A95D3
:10151000E2F7842B8C938A81282F30E0C901880F51
:10152000991F820F931F880F991FFC01E258FF4FEC
:101530008081813001F5A5E3B0E0E5E3F0E0408192
:101540008A81282F30E0C901880F991F820F931FCD
:10155000880F991FFC01E458FF4F8081282F30E04D
:1015600081E090E0022E02C0880F991F0A94E2F7F2
:10157000842B8C9364C28A81282F30E0C901880FA4
:10158000991F820F931F880F991FFC01E258FF4F8C
:101590008081882309F5A5E3B0E0E5E3F0E0408130
:1015A0008A81282F30E0C901880F991F820F931F6D
:1015B000880F991FFC01E458FF4F8081282F30E0ED
:1015C00081E090E0022E02C0880F991F0A94E2F792
:1015D000809584238C9333C28A81282F30E0C901FF
:1015E000880F991F820F931F880F991FFC01E058E5
:1015F000FF4F1082198223C28A81282F30E0C9014F
:10160000880F991F820F931F0196880F991FFC0165
:10161000E558FF4F8081882309F090C0A4E3B0E033
:10162000E4E3F0E040818A81282F30E0C901880F8F
:10163000991F820F931F880F991FFC01E458FF4FD9
:101640008081282F30E081E090E002C0880F991F50
:101650002A95E2F7809584238C938A81282F30E0A5
:10166000C901880F991F820F931F880F991FFC01D2
:10167000E158FF4F8081813001F5A5E3B0E0E5E35B
:10168000F0E040818A81282F30E0C901880F991F3E
:10169000820F931F880F991FFC01E458FF4F808130
:1016A000282F30E081E090E0022E02C0880F991FC1
:1016B0000A94E2F7842B8C93C2C18A81282F30E0F0
:1016C000C901880F991F820F931F880F991FFC0172
:1016D000E158FF4F8081882309F5A5E3B0E0E5E3F9
:1016E000F0E040818A81282F30E0C901880F991FDE
:1016F000820F931F880F991FFC01E458FF4F8081D0
:10170000282F30E081E090E0022E02C0880F991F60
:101710000A94E2F7809584238C9391C18A81282FC3
:1017200030E0C901880F991F820F931F880F991FFE
:10173000FC01E058FF4F1082198281C18A81282F55
:1017400030E0C901880F991F820F931F880F991FDE
:10175000FC01E058FF4F1082198271C18A81282F45
:1017600030E0C901880F991F820F931F0196880FDF
:10177000991FFC01E558FF4F8081813009F08FC02F
:10178000A1E3B0E0E1E3F0E040818A81282F30E07E
:10179000C901880F991F820F931F880F991FFC01A1
:1017A000E458FF4F8081282F30E081E090E002C0B4
:1017B000880F991F2A95E2F7842B8C938A81282F12
:1017C00030E0C901880F991F820F931F880F991F5E
:1017D000FC01E258FF4F8081813001F5A2E3B0E0C7
:1017E000E2E3F0E040818A81282F30E0C901880FD0
:1017F000991F820F931F880F991FFC01E458FF4F18
:101800008081282F30E081E090E0022E02C0880F16
:10181000991F0A94E2F7842B8C9311C18A81282F97
:1018200030E0C901880F991F820F931F880F991FFD
:10183000FC01E258FF4F8081882309F5A2E3B0E064
:10184000E2E3F0E040818A81282F30E0C901880F6F
:10185000991F820F931F880F991FFC01E458FF4FB7
:101860008081282F30E081E090E0022E02C0880FB6
:10187000991F0A94E2F7809584238C93E0C08A81B3
:10188000282F30E0C901880F991F820F931F880FFE
:10189000991FFC01E058FF4F10821982D0C08A8145
:1018A000282F30E0C901880F991F820F931F0196DE
:1018B000880F991FFC01E558FF4F8081882309F0AC
:1018C00090C0A1E3B0E0E1E3F0E040818A81282FFD
:1018D00030E0C901880F991F820F931F880F991F4D
:1018E000FC01E458FF4F8081282F30E081E090E038
:1018F00002C0880F991F2A95E2F7809584238C9364
:101900008A81282F30E0C901880F991F820F931F09
:10191000880F991FFC01E158FF4F8081813001F54C
:10192000A2E3B0E0E2E3F0E040818A81282F30E0DA
:10193000C901880F991F820F931F880F991FFC01FF
:10194000E458FF4F8081282F30E081E090E0022EA4
:1019500002C0880F991F0A94E2F7842B8C936FC002
:101960008A81282F30E0C901880F991F820F931FA9
:10197000880F991FFC01E158FF4F8081882309F5EA
:10198000A2E3B0E0E2E3F0E040818A81282F30E07A
:10199000C901880F991F820F931F880F991FFC019F
:1019A000E458FF4F8081282F30E081E090E0022E44
:1019B00002C0880F991F0A94E2F7809584238C93C4
:1019C0003EC08A81282F30E0C901880F991F820FFD
:1019D000931F880F991FFC01E058FF4F1082198256
:1019E0002EC08A81282F30E0C901880F991F820FED
:1019F000931F880F991FFC01E058FF4F1082198236
:101A00001EC08A81282F30E0C901880F991F820FDC
:101A1000931F880F991FFC01E058FF4F1082198215
:101A20000EC08A81282F30E0C901880F991F820FCC
:101A3000931F880F991FFC01E058FF4F10821982F5
:101A400089810F900F900F900F90CF91DF910895A3
:101A5000DF93CF9300D000D000D0CDB7DEB78A831C
:101A60006B8381E089838A81282F30E03E832D8338
:101A70004D815E814130510579F18D819E818230A9
:101A8000910534F42D813E812115310569F06CC03A
:101A90004D815E8142305105B9F18D819E81833047
:101AA000910509F449C060C0E9E3F0E08081282F86
:101AB00030E08B81882F90E0A90102C055954795B1
:101AC0008A95E2F7CA0181709070882319F051E07D
:101AD0005C834CC01C824AC0E6E3F0E08081282F82
:101AE00030E08B81882F90E0A90102C05595479581
:101AF0008A95E2F7CA0181709070882319F051E04D
:101B00005C8334C01C8232C0E3E3F0E08081282F84
:101B100030E08B81882F90E0A90102C05595479550
:101B20008A95E2F7CA0181709070882319F051E01C
:101B30005C831CC01C821AC0E0E3F0E08081282F87
:101B400030E08B81882F90E0A90102C05595479520
:101B50008A95E2F7CA0181709070882319F051E0EC
:101B60005C8304C01C8202C089818C838C81269690
:101B70000FB6F894DEBF0FBECDBFCF91DF910895B1
:101B8000DF93CF93CDB7DEB727970FB6F894DEBFBC
:101B90000FBECDBF8A836B834C832D8381E0898305
:101BA0008D81282F30E0C901880F991F820F931F64
:101BB000880F991FFC01E558FF4F90818A81981783
:101BC00009F008C18D81282F30E0C901880F991FC5
:101BD000820F931F880F991FFC01E458FF4F9081DB
:101BE0008B81981709F0F6C08D81282F30E0C9014C
:101BF000880F991F820F931F880F991FFC01E058CF
:101C0000FF4F8081813009F0E3C08D81282F30E0C3
:101C1000C901880F991F820F931F0196880F991F82
:101C2000FC01E558FF4F8081813009F0D1C08C81E3
:101C3000813021F08C81882309F0CAC08A81282F45
:101C400030E03F832E838E819F818130910509F49E
:101C500041C02E813F81223031052CF48E819F813D
:101C6000009771F0B8C02E813F812230310509F410
:101C70005BC08E819F818330910509F47FC0ABC02A
:101C80008C81813099F4ABE3B0E0EBE3F0E040818C
:101C90008B81282F30E081E090E0022E02C0880F77
:101CA000991F0A94E2F7842B8C9395C0ABE3B0E0C4
:101CB000EBE3F0E040818B81282F30E081E090E081
:101CC000022E02C0880F991F0A94E2F780958423A0
:101CD0008C9381C08C81813099F4A8E3B0E0E8E373
:101CE000F0E040818B81282F30E081E090E0022EEF
:101CF00002C0880F991F0A94E2F7842B8C936BC063
:101D0000A8E3B0E0E8E3F0E040818B81282F30E0E9
:101D100081E090E0022E02C0880F991F0A94E2F73A
:101D2000809584238C9357C08C81813099F4A5E3EE
:101D3000B0E0E5E3F0E040818B81282F30E081E0E6
:101D400090E0022E02C0880F991F0A94E2F7842BBC
:101D50008C9341C0A5E3B0E0E5E3F0E040818B81E6
:101D6000282F30E081E090E0022E02C0880F991FFA
:101D70000A94E2F7809584238C932DC08C81813066
:101D800099F4A2E3B0E0E2E3F0E040818B81282FF8
:101D900030E081E090E0022E02C0880F991F0A9483
:101DA000E2F7842B8C9317C0A2E3B0E0E2E3F0E00B
:101DB00040818B81282F30E081E090E0022E02C02C
:101DC000880F991F0A94E2F7809584238C9303C0AF
:101DD000198201C01982898127960FB6F894DEBF57
:101DE0000FBECDBFCF91DF910895DF93CF93CDB7D5
:101DF000DEB7AAE3B0E0EAE3F0E080818E608C9386
:101E0000AAE3B0E0EAE3F0E08081806F8C9382E0A7
:101E10000E94160F88E20E94160F8CE00E94160F97
:101E200081E00E94160FCF91DF9108950F931F93C9
:101E3000DF93CF93CDB7DEB7C356D0400FB6F8943B
:101E4000DEBF0FBECDBFFE01ED59FF4F8083ABE378
:101E5000B0E0EBE3F0E080818D7F8C93ABE3B0E00A
:101E6000EBE3F0E080818B7F8C93FE01E15AFF4F22
:101E700080E090E0A0E8BFE380839183A283B383F6
:101E80008E01055A1F4FFE01E15AFF4F608171819B
:101E90008281938120E030E04AEF54E40E941702EF
:101EA000DC01CB01F80180839183A283B383FE011F
:101EB000E55AFF4F608171818281938120E030E09B
:101EC00040E85FE30E947103882344F4FE01E75A6F
:101ED000FF4F81E090E09183808364C0FE01E55A6A
:101EE000FF4F608171818281938120E03FEF4FE756
:101EF00057E40E94110318160CF043C0FE01E15A8A
:101F0000FF4F608171818281938120E030E040E267
:101F100051E40E941702DC01CB018E01075A1F4FCA
:101F2000BC01CD010E944100DC01CB01F80191838D
:101F300080831FC0FE01E95AFF4F88EC90E0918337
:101F40008083FE01E95AFF4F808191810197F1F76B
:101F5000FE01E95AFF4F91838083DE01A75ABF4FEC
:101F6000FE01E75AFF4F80819181019711969C9362
:101F70008E93FE01E75AFF4F808191810097D1F641
:101F800027C08E01075A1F4FFE01E55AFF4F60819F
:101F90007181828193810E944100DC01CB01F801B3
:101FA00091838083DE01AB5ABF4FFE01E75AFF4F9A
:101FB000808191818D939C93FE01EB5AFF4F80812C
:101FC00091810197F1F7FE01EB5AFF4F91838083D6
:101FD000ABE3B0E0EBE3F0E0808188608C93FE013E
:101FE000EF5AFF4F80E090E0A0E8BFE38083918349
:101FF000A283B3838E01035B1F4FFE01EF5AFF4F95
:10200000608171818281938120E030E04AEF54E465
:102010000E941702DC01CB01F80180839183A28327
:10202000B383FE01E35BFF4F608171818281938105
:1020300020E030E040E85FE30E947103882344F42D
:10204000FE01E55BFF4F81E090E09183808364C0F7
:10205000FE01E35BFF4F608171818281938120E00B
:102060003FEF4FE757E40E94110318160CF043C0EE
:10207000FE01EF5AFF4F608171818281938120E0E0
:1020800030E040E251E40E941702DC01CB018E01F6
:10209000055B1F4FBC01CD010E944100DC01CB015B
:1020A000F801918380831FC0FE01E75BFF4F88EC3E
:1020B00090E091838083FE01E75BFF4F80819181F7
:1020C0000197F1F7FE01E75BFF4F91838083DE010B
:1020D000A55BBF4FFE01E55BFF4F808191810197BA
:1020E00011969C938E93FE01E55BFF4F8081918159
:1020F0000097D1F627C08E01055B1F4FFE01E35B01
:10210000FF4F60817181828193810E944100DC01D7
:10211000CB01F80191838083DE01A95BBF4FFE01F3
:10212000E55BFF4F808191818D939C93FE01E95B7C
:10213000FF4F808191810197F1F7FE01E95BFF4F2D
:1021400091838083ABE3B0E0EBE3F0E08081982FF4
:102150009F70FE01ED59FF4F8081807F892B8C930A
:10216000FE01ED5BFF4F80E090E0A0E8BFE38083DD
:102170009183A283B3838E01015C1F4FFE01ED5B4F
:10218000FF4F608171818281938120E030E04AEFCE
:1021900054E40E941702DC01CB01F8018083918393
:1021A000A283B383FE01FF96608171818281938156
:1021B00020E030E040E85FE30E94710388232CF4C4
:1021C00081E090E09EAF8DAF46C0FE01FF9660813A
:1021D00071818281938120E03FEF4FE757E40E94B5
:1021E0001103181664F5FE01ED5BFF4F60817181EC
:1021F0008281938120E030E040E251E40E941702A6
:10220000DC01CB01BC01CD010E944100DC01CB010E
:102210009EAF8DAF0FC088EC90E09CAF8BAF8BADC5
:102220009CAD0197F1F79CAF8BAF8DAD9EAD019743
:102230009EAF8DAF8DAD9EAD009769F716C0FE01C4
:10224000FF9660817181828193810E944100DC014F
:10225000CB019EAF8DAF8DAD9EAD9AAF89AF89ADED
:102260009AAD0197F1F79AAF89AFABE3B0E0EBE33A
:10227000F0E08081877F8C9380E090E0A0E8BFE36E
:102280008DAB9EABAFABB8AF6DA97EA98FA998AD52
:1022900020E030E04AEF54E40E941702DC01CB0159
:1022A00089AB9AABABABBCAB69A97AA98BA99CA94A
:1022B00020E030E040E85FE30E94710388232CF4C3
:1022C00081E090E098AB8FA73FC069A97AA98BA95C
:1022D0009CA920E03FEF4FE757E40E941103181636
:1022E0004CF56DA97EA98FA998AD20E030E040E2C1
:1022F00051E40E941702DC01CB01BC01CD010E9418
:102300004100DC01CB0198AB8FA70FC088EC90E0B7
:102310009EA78DA78DA59EA50197F1F79EA78DA7D6
:102320008FA598A9019798AB8FA78FA598A900971B
:1023300069F714C069A97AA98BA99CA90E944100D8
:10234000DC01CB0198AB8FA78FA598A99CA78BA781
:102350008BA59CA50197F1F79CA78BA7ABE3B0E0F9
:10236000EBE3F0E0808188608C9380E090E0A0E86F
:10237000BFE38FA398A7A9A7BAA76FA178A589A53E
:102380009AA520E030E04AEF54E40E941702DC01F5
:10239000CB018BA39CA3ADA3BEA36BA17CA18DA1FC
:1023A0009EA120E030E040E85FE30E9471038823B3
:1023B0002CF481E090E09AA389A33FC06BA17CA19B
:1023C0008DA19EA120E03FEF4FE757E40E9411034B
:1023D00018164CF56FA178A589A59AA520E030E0E4
:1023E00040E251E40E941702DC01CB01BC01CD01A7
:1023F0000E944100DC01CB019AA389A30FC088ECA5
:1024000090E098A38F8F8F8D98A10197F1F798A3F3
:102410008F8F89A19AA101979AA389A389A19AA1D3
:10242000009769F714C06BA17CA18DA19EA10E94A9
:102430004100DC01CB019AA389A389A19AA19E8FB7
:102440008D8F8D8D9E8D0197F1F79E8F8D8FABE3D4
:10245000B0E0EBE3F0E08081282F2F70FE01ED5912
:10246000FF4F8081882F90E082959295907F9827EA
:10247000807F9827822B8C9380E090E0A0E8BFE3D8
:10248000898F9A8FAB8FBC8F698D7A8D8B8D9C8D48
:1024900020E030E04AEF54E40E941702DC01CB0157
:1024A0008D8B9E8BAF8BB88F6D897E898F89988D30
:1024B00020E030E040E85FE30E94710388232CF4C1
:1024C00081E090E09C8B8B8B3FC06D897E898F89EA
:1024D000988D20E03FEF4FE757E40E941103181654
:1024E0004CF5698D7A8D8B8D9C8D20E030E040E23B
:1024F00051E40E941702DC01CB01BC01CD010E9416
:102500004100DC01CB019C8B8B8B0FC088EC90E0F1
:102510009A8B898B89899A890197F1F79A8B898B94
:102520008B899C8901979C8B8B8B8B899C890097CD
:1025300069F714C06D897E898F89988D0E9441004A
:10254000DC01CB019C8B8B8B8B899C89988B8F8733
:102550008F8598890197F1F7988B8F87ABE3B0E06F
:10256000EBE3F0E08081877F8C9380E090E0A0E84F
:10257000BFE38B879C87AD87BE876B857C858D8508
:102580009E8520E030E04AEF54E40E941702DC010F
:10259000CB018F839887A987BA876F8178858985D2
:1025A0009A8520E030E040E85FE30E9471038823D1
:1025B0002CF481E090E09E838D833FC06F8178850D
:1025C00089859A8520E03FEF4FE757E40E94110389
:1025D00018164CF56B857C858D859E8520E030E056
:1025E00040E251E40E941702DC01CB01BC01CD01A5
:1025F0000E944100DC01CB019E838D830FC088ECDB
:1026000090E09C838B838B819C810197F1F79C8365
:102610008B838D819E8101979E838D838D819E8189
:10262000009769F714C06F81788589859A850E9423
:102630004100DC01CB019E838D838D819E819A8335
:10264000898389819A810197F1F79A838983CD598A
:10265000DF4F0FB6F894DEBF0FBECDBFCF91DF9135
:102660001F910F9108950F931F93DF93CF93CDB7D1
:10267000DEB7C356D0400FB6F894DEBF0FBECDBF55
:10268000FE01ED59FF4F8083ABE3B0E0EBE3F0E0F8
:10269000808182608C93ABE3B0E0EBE3F0E080817B
:1026A0008B7F8C93FE01E15AFF4F80E090E0A0E821
:1026B000BFE380839183A283B3838E01055A1F4FAA
:1026C000FE01E15AFF4F608171818281938120E098
:1026D00030E04AEF54E40E941702DC01CB01F8011C
:1026E00080839183A283B383FE01E55AFF4F60810B
:1026F00071818281938120E030E040E85FE30E94B5
:102700007103882344F4FE01E75AFF4F81E090E013
:102710009183808364C0FE01E55AFF4F608171811F
:102720008281938120E03FEF4FE757E40E9411033D
:1027300018160CF043C0FE01E15AFF4F6081718111
:102740008281938120E030E040E251E40E94170250
:10275000DC01CB018E01075A1F4FBC01CD010E9445
:102760004100DC01CB01F801918380831FC0FE0191
:10277000E95AFF4F88EC90E091838083FE01E95A8B
:10278000FF4F808191810197F1F7FE01E95AFF4FD8
:1027900091838083DE01A75ABF4FFE01E75AFF4FA6
:1027A00080819181019711969C938E93FE01E75A47
:1027B000FF4F808191810097D1F627C08E01075A83
:1027C0001F4FFE01E55AFF4F608171818281938125
:1027D0000E944100DC01CB01F80191838083DE017E
:1027E000AB5ABF4FFE01E75AFF4F808191818D9315
:1027F0009C93FE01EB5AFF4F808191810197F1F785
:10280000FE01EB5AFF4F91838083ABE3B0E0EBE333
:10281000F0E0808188608C93FE01EF5AFF4F80E0EA
:1028200090E0A0E8BFE380839183A283B3838E010D
:10283000035B1F4FFE01EF5AFF4F60817181828160
:10284000938120E030E04AEF54E40E941702DC015B
:10285000CB01F80180839183A283B383FE01E35B04
:10286000FF4F608171818281938120E030E040E8F8
:102870005FE30E947103882344F4FE01E55BFF4F90
:1028800081E090E09183808364C0FE01E35BFF4FB1
:10289000608171818281938120E03FEF4FE757E4AF
:1028A0000E94110318160CF043C0FE01EF5AFF4FAF
:1028B000608171818281938120E030E040E251E4C7
:1028C0000E941702DC01CB018E01055B1F4FBC018A
:1028D000CD010E944100DC01CB01F801918380838E
:1028E0001FC0FE01E75BFF4F88EC90E0918380837F
:1028F000FE01E75BFF4F808191810197F1F7FE01B7
:10290000E75BFF4F91838083DE01A55BBF4FFE0134
:10291000E55BFF4F80819181019711969C938E9387
:10292000FE01E55BFF4F808191810097D1F627C0C2
:102930008E01055B1F4FFE01E35BFF4F60817181DC
:10294000828193810E944100DC01CB01F8019183D7
:102950008083DE01A95BBF4FFE01E55BFF4F8081F5
:1029600091818D939C93FE01E95BFF4F8081918162
:102970000197F1F7FE01E95BFF4F91838083ABE3A1
:10298000B0E0EBE3F0E08081982F9F70FE01ED59FD
:10299000FF4F8081807F892B8C93FE01ED5BFF4F81
:1029A00080E090E0A0E8BFE380839183A283B383BB
:1029B0008E01015C1F4FFE01ED5BFF4F6081718155
:1029C0008281938120E030E04AEF54E40E941702B4
:1029D000DC01CB01F80180839183A283B383FE01E4
:1029E000FF96608171818281938120E030E040E830
:1029F0005FE30E94710388232CF481E090E09EAF96
:102A00008DAF46C0FE01FF96608171818281938106
:102A100020E03FEF4FE757E40E941103181664F5DA
:102A2000FE01ED5BFF4F608171818281938120E027
:102A300030E040E251E40E941702DC01CB01BC010E
:102A4000CD010E944100DC01CB019EAF8DAF0FC0D4
:102A500088EC90E09CAF8BAF8BAD9CAD0197F1F70C
:102A60009CAF8BAF8DAD9EAD01979EAF8DAF8DAD01
:102A70009EAD009769F716C0FE01FF9660817181D7
:102A8000828193810E944100DC01CB019EAF8DAF1A
:102A90008DAD9EAD9AAF89AF89AD9AAD0197F1F733
:102AA0009AAF89AFABE3B0E0EBE3F0E08081877FE2
:102AB0008C9380E090E0A0E8BFE38DAB9EABAFAB22
:102AC000B8AF6DA97EA98FA998AD20E030E04AEF9C
:102AD00054E40E941702DC01CB0189AB9AABABAB8B
:102AE000BCAB69A97AA98BA99CA920E030E040E899
:102AF0005FE30E94710388232CF481E090E098AB9F
:102B00008FA73FC069A97AA98BA99CA920E03FEFB4
:102B10004FE757E40E94110318164CF56DA97EA9E2
:102B20008FA998AD20E030E040E251E40E94170206
:102B3000DC01CB01BC01CD010E944100DC01CB01D5
:102B400098AB8FA70FC088EC90E09EA78DA78DA5AE
:102B50009EA50197F1F79EA78DA78FA598A901972C
:102B600098AB8FA78FA598A9009769F714C069A99A
:102B70007AA98BA99CA90E944100DC01CB0198ABEA
:102B80008FA78FA598A99CA78BA78BA59CA501971C
:102B9000F1F79CA78BA7ABE3B0E0EBE3F0E080811B
:102BA00088608C9380E090E0A0E8BFE38FA398A7B3
:102BB000A9A7BAA76FA178A589A59AA520E030E0BA
:102BC0004AEF54E40E941702DC01CB018BA39CA3C3
:102BD000ADA3BEA36BA17CA18DA19EA120E030E09E
:102BE00040E85FE30E94710388232CF481E090E0C9
:102BF0009AA389A33FC06BA17CA18DA19EA120E0D7
:102C00003FEF4FE757E40E94110318164CF56FA1F0
:102C100078A589A59AA520E030E040E251E40E9421
:102C20001702DC01CB01BC01CD010E944100DC0197
:102C3000CB019AA389A30FC088EC90E098A38F8F53
:102C40008F8D98A10197F1F798A38F8F89A19AA1F1
:102C500001979AA389A389A19AA1009769F714C043
:102C60006BA17CA18DA19EA10E944100DC01CB0142
:102C70009AA389A389A19AA19E8F8D8F8D8D9E8DF8
:102C80000197F1F79E8F8D8FABE3B0E0EBE3F0E0BF
:102C90008081282F2F70FE01ED59FF4F8081882FF2
:102CA00090E082959295907F9827807F9827822B3D
:102CB0008C9380E090E0A0E8BFE3898F9A8FAB8F80
:102CC000BC8F698D7A8D8B8D9C8D20E030E04AEF32
:102CD00054E40E941702DC01CB018D8B9E8BAF8BDD
:102CE000B88F6D897E898F89988D20E030E040E82B
:102CF0005FE30E94710388232CF481E090E09C8BB9
:102D00008B8B3FC06D897E898F89988D20E03FEF46
:102D10004FE757E40E94110318164CF5698D7A8D20
:102D20008B8D9C8D20E030E040E251E40E94170240
:102D3000DC01CB01BC01CD010E944100DC01CB01D3
:102D40009C8B8B8B0FC088EC90E09A8B898B898948
:102D50009A890197F1F79A8B898B8B899C890197C6
:102D60009C8B8B8B8B899C89009769F714C06D892C
:102D70007E898F89988D0E944100DC01CB019C8B5C
:102D80008B8B8B899C89988B8F878F8598890197EE
:102D9000F1F7988B8F87ABE3B0E0EBE3F0E0808155
:102DA000877F8C9380E090E0A0E8BFE38B879C87CF
:102DB000AD87BE876B857C858D859E8520E030E064
:102DC0004AEF54E40E941702DC01CB018F839887FD
:102DD000A987BA876F81788589859A8520E030E058
:102DE00040E85FE30E94710388232CF481E090E0C7
:102DF0009E838D833FC06F81788589859A8520E089
:102E00003FEF4FE757E40E94110318164CF56B850E
:102E10007C858D859E8520E030E040E251E40E9473
:102E20001702DC01CB01BC01CD010E944100DC0195
:102E3000CB019E838D830FC088EC90E09C838B83B5
:102E40008B819C810197F1F79C838B838D819E817F
:102E500001979E838D838D819E81009769F714C0B1
:102E60006F81788589859A850E944100DC01CB01BC
:102E70009E838D838D819E819A83898389819A81A6
:102E80000197F1F79A838983CD59DF4F0FB6F894F4
:102E9000DEBF0FBECDBFCF91DF911F910F9108957F
:102EA000DF93CF9300D0CDB7DEB79A8389830AC072
:102EB000E981FA8180810E94331389819A81019688
:102EC0009A838983E981FA818081882389F70F9029
:102ED0000F90CF91DF910895DF93CF9300D000D072
:102EE0000F92CDB7DEB78A836B838A81282F30E0BB
:102EF0003D832C838C819D81009731F02C813D8115
:102F00002130310521F006C08B81898303C08B817C
:102F1000805C8983898180680E94160F0F900F90D2
:102F20000F900F900F90CF91DF910895DF93CF9383
:102F3000CDB7DEB762970FB6F894DEBF0FBECDBF38
:102F40009A8B898B89899A899E012F5F3F4FB9019E
:102F50004AE050E00E94D918CE0101960E94501715
:102F600062960FB6F894DEBF0FBECDBFCF91DF9152
:102F70000895DF93CF93CDB7DEB728970FB6F894B7
:102F8000DEBF0FBECDBF8B836C835E834D83198202
:102F90008B81282F30E038872F838F819885009789
:102FA00031F02F8138852130310521F006C08C8128
:102FB0008A8303C08C81805C8A838A8180680E94B6
:102FC000160F10C08981282F30E08D819E81FC0171
:102FD000E20FF31F80810E9433138D819E81019641
:102FE0009E838D83ED81FE818081882359F7289609
:102FF0000FB6F894DEBF0FBECDBFCF91DF9108951D
:10300000DF93CF93CDB7DEB781E00E94160FCF914B
:10301000DF910895DF93CF93CDB7DEB7AAE2B0E09A
:10302000EAE2F0E0808188618C93A0E4B0E0E0E423
:10303000F0E0808186688C93E9E2F0E083E38083AE
:10304000CF91DF910895DF93CF930F92CDB7DEB785
:103050008983EBE2F0E08081882F90E080729070AD
:103060000097B9F3ECE2F0E0898180830F90CF9173
:10307000DF910895DF93CF93CDB7DEB7EBE2F0E0B9
:1030800080818823DCF7ECE2F0E08081CF91DF9152
:103090000895DF93CF9300D0CDB7DEB719824DC02E
:1030A000E4E3F0E08981282F30E080E290E002C084
:1030B000880F991F2A95E2F78083E5E3F0E0898184
:1030C000282F30E080E290E0022E02C0880F991F86
:1030D0000A94E2F780958C7F808382E08A8327C000
:1030E000E3E3F0E08081282F30E08A81882F90E0B0
:1030F000A90102C0559547958A95E2F7CA018170EA
:103100009070009789F48A81282F30E0C901880FD8
:10311000991F820F931F982F8981890F85500F90D7
:103120000F90CF91DF9108958A818F5F8A838A8182
:103130008530B0F289818F5F89838981833008F47B
:10314000AFCFACCF2F923F924F925F926F927F9210
:103150008F929F92AF92BF92CF92DF92EF92FF92A7
:103160000F931F93CF93DF93CDB7DEB7CA1BDB0B53
:103170000FB6F894DEBF0FBECDBF09942A883988F8
:1031800048885F846E847D848C849B84AA84B984FF
:10319000C884DF80EE80FD800C811B81AA81B9810B
:1031A000CE0FD11D0FB6F894DEBF0FBECDBFED011F
:1031B0000895FB019F01E8944230C4F04532B4F415
:1031C0004A3029F497FB1EF4909581959F4F642F08
:1031D00077270E940A19805D8A330CF0895D8193FC
:1031E000CB010097A1F716F45DE251931082C9015B
:1031F0000C94FA18DC01FC01672F71917723E1F739
:10320000329704C07C916D9370836291AE17BF07B3
:10321000C8F30895AA1BBB1B51E107C0AA1FBB1F1F
:10322000A617B70710F0A61BB70B881F991F5A9552
:10323000A9F780959095BC01CD010895F894FFCF32
:1032400044697374616E63653A2000436D00202009
:103250002020000000000000000000020400FFFF2A
:1032600001010200FFFF01000062FBFB0000030000
:00000001FF
